:100000000C9463000C948B000C948B000C948B006C
:100010000C948B000C948B000C948B000C948B0034
:100020000C948B000C948B000C948B000C948B0024
:100030000C948B000C948B000C948B000C948B0014
:100040000C94DB000C948B000C94C6010C940D02F4
:100050000C948B000C948B000C948B000C948B00F4
:100060000C948B000C948B000000000024002700EF
:100070002A0000000000250028002B0000000000DE
:1000800023002600290004040404040404040202DA
:100090000202020203030303030301020408102007
:1000A0004080010204081020010204081020000012
:1000B0000007000201000003040600000000000029
:1000C00000009000730311241FBECFEFD4E0DEBF09
:1000D000CDBF11E0A0E0B1E0E8E1FEE002C0059094
:1000E0000D92A831B107D9F711E0A8E1B1E001C044
:1000F0001D92A43EB107E1F710E0C6ECD0E004C0C9
:100100002297FE010E940607C23CD107C9F70E9450
:10011000E7040C948D000C940000F8940C940A07EA
:10012000EF92FF920F931F9388E191E068EC70E0EB
:1001300048E050E029E030E00AE010E0EBE0EE2E8D
:10014000F12C0E94CE051F910F91FF90EF90089522
:100150000F931F9388E191E061E070E00E946C05CD
:1001600005EC11E0C80160E071E00E94E4046091D8
:10017000320170913301C8014AE050E00E94C50489
:1001800080913201909133010196909333018093D5
:10019000320164EF71E080E090E00E9431011F9134
:1001A0000F91089585EC91E040E855E260E070E041
:1001B0000E94480208951F920F920FB60F921124C9
:1001C0002F933F938F939F93AF93BF938091380169
:1001D00090913901A0913A01B0913B0130913C01DD
:1001E0000196A11DB11D232F2D5F2D3720F02D5716
:1001F0000196A11DB11D20933C018093380190937D
:100200003901A0933A01B0933B0180913401909160
:100210003501A0913601B09137010196A11DB11DA4
:100220008093340190933501A0933601B093370148
:10023000BF91AF919F918F913F912F910F900FBEE2
:100240000F901F9018958FB7F89420913801309136
:10025000390140913A0150913B018FBFB901CA0168
:1002600008959B01AC017FB7F8948091340190917F
:100270003501A0913601B091370166B5A89B05C044
:100280006F3F19F00196A11DB11D7FBFBA2FA92F95
:10029000982F8827860F911DA11DB11D62E0880F40
:1002A000991FAA1FBB1F6A95D1F7BC012DC0FFB7CC
:1002B000F8948091340190913501A0913601B0916C
:1002C0003701E6B5A89B05C0EF3F19F00196A11DC7
:1002D000B11DFFBFBA2FA92F982F88278E0F911D10
:1002E000A11DB11DE2E0880F991FAA1FBB1FEA954F
:1002F000D1F7861B970B885E9340C8F2215030409F
:100300004040504068517C4F211531054105510551
:1003100071F60895789484B5826084BD84B5816057
:1003200084BD85B5826085BD85B5816085BDEEE6FD
:10033000F0E0808181608083E1E8F0E010828081DC
:1003400082608083808181608083E0E8F0E080814A
:1003500081608083E1EBF0E0808184608083E0EB6A
:10036000F0E0808181608083EAE7F0E08081846052
:1003700080838081826080838081816080838081AE
:10038000806880831092C100089508951F920F9293
:100390000FB60F9211242F933F934F938F939F93F8
:1003A000EF93FF934091C60020917D0130917E0133
:1003B0002F5F3F4F2F73307080917F0190918001AC
:1003C0002817390759F0E0917D01F0917E01E35C37
:1003D000FE4F408330937E0120937D01FF91EF918A
:1003E0009F918F914F913F912F910F900FBE0F9042
:1003F0001F901895E091D101F091D201E05CFF4F80
:100400008191919120813181821B930B8F73907028
:10041000892B11F00E94C50108951F920F920FB60B
:100420000F9211242F933F938F939F93EF93FF93FA
:100430002091C1013091C2018091C3019091C4010A
:100440002817390731F48091C1008F7D8093C10056
:1004500014C0E091C301F091C401EF57FE4F208119
:100460008091C3019091C40101968F739070909315
:10047000C4018093C3012093C600FF91EF919F9127
:100480008F913F912F910F900FBE0F901F90189555
:10049000AF92BF92DF92EF92FF920F931F93CF9391
:1004A000DF93EC017A018B01DD24403081EE5807A7
:1004B00080E0680780E0780711F0DD24D39491E0B4
:1004C000A92EB12CEC89FD89DD2069F0C5010E8CC7
:1004D00002C0880F991F0A94E2F7808360E079E0F8
:1004E0008DE390E005C0108260E874E88EE190E052
:1004F000A80197010E94E206215030404040504040
:10050000569547953795279580E12030380720F09C
:10051000DD2011F0DD24D6CFE889F9893083EA891E
:10052000FB892083EE89FF89408121E030E0C90109
:100530000A8C02C0880F991F0A94E2F7482B408367
:10054000EE89FF894081C9010B8C02C0880F991F79
:100550000A94E2F7482B4083EE89FF894081C90164
:100560000C8C02C0880F991F0A94E2F7482B408335
:10057000EE89FF8980810D8C02C0220F331F0A94FF
:10058000E2F7209528232083DF91CF911F910F91CF
:10059000FF90EF90DF90BF90AF900895DC011C9624
:1005A000ED91FC911D97E05CFF4F2191319180818D
:1005B0009181281B390B2F733070C9010895DC011C
:1005C0001C96ED91FC911D97E05CFF4F20813181DD
:1005D000E054F040DF01AE5BBF4F8D919C911197CD
:1005E0002817390719F42FEF3FEF07C08D919C9121
:1005F000E80FF91F8081282F30E0C9010895DC0140
:100600001C96ED91FC911D97E05CFF4F208131819C
:10061000E054F040DF01AE5BBF4F8D919C9111978C
:100620002817390719F42FEF3FEF10C08D919C91D7
:100630001197E80FF91F20818D919C9111970196D8
:100640008F73907011969C938E9330E0C90108953A
:10065000FC0186859785DC01A05CBF4FFC01EE5B49
:10066000FF4F2D913C911197808191812817390777
:10067000C1F70895CF93DF93EC01EE85FF85E05C31
:10068000FF4F20813181E054F0402F5F3F4F2F73A7
:100690003070DF01AE5BBF4F8D919C911197281791
:1006A0003907D1F3E05CFF4F80819181E054F04045
:1006B000E80FF91F6083EE85FF85E05CFF4F318313
:1006C0002083EE89FF89208181E090E00D8C02C0BB
:1006D000880F991F0A94E2F7282B208381E090E08D
:1006E000DF91CF9108951092C8011092C70188EE52
:1006F00093E0A0E0B0E08093C9019093CA01A09379
:10070000CB01B093CC018BE091E09093C601809334
:10071000C5018DE391E09093D2018093D10181E8EE
:1007200091E09093D4018093D30185EC90E0909375
:10073000D6018093D50184EC90E09093D80180930A
:10074000D70180EC90E09093DA018093D90181EC9D
:1007500090E09093DC018093DB0186EC90E0909335
:10076000DE018093DD0184E08093DF0183E08093EC
:10077000E00187E08093E10185E08093E20181E080
:100780008093E3010895CF92DF92EF92FF920F934F
:100790001F93CF93DF937C016B018A01C0E0D0E00F
:1007A0000FC0D6016D916D01D701ED91FC910190C3
:1007B000F081E02DC7010995C80FD91F01501040E5
:1007C0000115110571F7CE01DF91CF911F910F91A6
:1007D000FF90EF90DF90CF900895EF92FF920F93EC
:1007E0001F938C01DC01ED91FC910190F081E02DD3
:1007F0006DE009957C01D801ED91FC910190F081AB
:10080000E02DC8016AE009959C012E0D3F1DC9012C
:100810001F910F91FF90EF900895CF93DF93DB012D
:100820000D900020E9F71197A61BB70BEC01E881AA
:10083000F9810280F381E02DAD010995DF91CF911F
:1008400008954F925F927F928F929F92AF92BF9244
:10085000CF92DF92EF92FF920F931F93DF93CF938C
:10086000CDB7DEB7A1970FB6F894DEBF0FBECDBFF0
:100870002C01742ECB01223008F42AE019A231E2B7
:10088000C32ED12CCC0EDD1E822E9924AA24BB248B
:10089000672D752FA50194010E94E20679018A0156
:1008A000C801B701A50194010E949C06472D461B73
:1008B0000894C108D1084A3014F4405D01C0495C75
:1008C000F6014083E114F1040105110521F07E2CAD
:1008D0005F2DC801DDCFC201B6010E940D04A196B3
:1008E0000FB6F894DEBF0FBECDBFCF91DF911F9141
:1008F0000F91FF90EF90DF90CF90BF90AF909F90BF
:100900008F907F905F904F900895CF92DF92EF92FB
:10091000FF920F931F93CF93DF93EC016A017B014A
:100920002115310541F4E881F9810190F081E02D34
:10093000642F09951FC02A303105D1F477FF17C005
:10094000E881F9810190F081E02D6DE209958C013B
:1009500044275527BA014C195D096E097F09CE015C
:100960002AE00E9421049801280F391F04C02AE0C0
:100970000E9421049C01C901DF91CF911F910F9129
:10098000FF90EF90DF90CF900895CF92DF92EF929B
:10099000FF920F931F936C017B019A010027F7FCD4
:1009A0000095102FB801A7010E9485048C01C60193
:1009B0000E94ED03080F191FC8011F910F91FF90AE
:1009C000EF90DF90CF9008950E940D040895CF938B
:1009D000DF930E948A010E94D200CAEFD1E00E94F8
:1009E000A8002097E1F30E94FA01F9CF0F931F931B
:1009F000CF93DF93EC018B018A859B85029731F5BC
:100A00006130710589F06230710524F4611571055A
:100A100041F01CC06230710571F063307105B1F4B2
:100A20000DC08E8560E002C08E8561E00E944806A0
:100A3000888961E009C08E8561E002C08E8560E032
:100A40000E944806888960E00E9448068A859B8546
:100A50000497E9F501301105A1F0023011051CF4ED
:100A6000012B41F034C002301105D1F003301105E3
:100A700071F51DC08E8561E00E944806888960E09E
:100A800006C08E8560E00E944806888961E00E9469
:100A900048068A8961E00E9448068C8960E015C09A
:100AA0008E8560E00E944806888961E006C08E85D8
:100AB00061E00E944806888960E00E9448068A89B1
:100AC00060E00E9448068C8961E00E944806DF9140
:100AD000CF911F910F9108950F931F93CF93DF93A1
:100AE000EC011616170624F481E090E099838883C0
:100AF00077FF02C0198218828B0177FF46C01095DC
:100B000001951F4F42C00E9423012E893F89488DC5
:100B1000598D621B730B840B950B2C813D814E818B
:100B20005F81621773078407950768F30E942301AA
:100B30006E8B7F8B888F998F888199812C853D85DD
:100B4000019761F42F5F3F4F3D872C8788859985FA
:100B50002817390771F41D861C860BC0232B21F43E
:100B6000888599859D878C878C859D8501979D8734
:100B70008C87015010408C859D8564E070E00E9458
:100B8000CF06BC01CE010E94F6040115110509F043
:100B9000BACFDF91CF911F910F910895CF92DF923D
:100BA000EF92FF920F931F936C01842FF60115862D
:100BB00014861382128211821082168A178A108E6E
:100BC000118E7187608746875787318B208B138BF7
:100BD000028BF58AE48A61E00E940906F6018089A9
:100BE00061E00E940906F601828961E00E9409061F
:100BF000F601848961E00E94090684E090E0F60134
:100C0000938782871F910F91FF90EF90DF90CF9095
:100C10000895CF93DF93482F50E0CA0186569F4F27
:100C2000FC0134914A575F4FFA018491882369F19E
:100C300090E0880F991FFC01E859FF4FA591B491EE
:100C4000FC01EE58FF4FC591D491662351F42FB7A4
:100C5000F8948C91932F909589238C938881892384
:100C60000BC0623061F42FB7F8948C91932F90955C
:100C700089238C938881832B88832FBF06C09FB7DD
:100C8000F8948C91832B8C939FBFDF91CF91089523
:100C9000482F50E0CA0182559F4FFC012491CA01A0
:100CA00086569F4FFC0194914A575F4FFA01349149
:100CB000332309F440C0222351F1233071F0243052
:100CC00028F42130A1F0223011F514C02630B1F003
:100CD0002730C1F02430D9F404C0809180008F7790
:100CE00003C0809180008F7D8093800010C084B508
:100CF0008F7702C084B58F7D84BD09C08091B0001C
:100D00008F7703C08091B0008F7D8093B000E32F78
:100D1000F0E0EE0FFF1FEE58FF4FA591B4912FB7F3
:100D2000F894662321F48C919095892302C08C91CC
:100D3000892B8C932FBF0895629FD001739FF00180
:100D4000829FE00DF11D649FE00DF11D929FF00D5B
:100D5000839FF00D749FF00D659FF00D9927729F92
:100D6000B00DE11DF91F639FB00DE11DF91FBD011D
:100D7000CF0111240895AA1BBB1B51E107C0AA1F74
:100D8000BB1FA617B70710F0A61BB70B881F991F2C
:100D90005A95A9F780959095BC01CD01089597FBD0
:100DA000092E07260AD077FD04D0E5DF06D0002003
:100DB0001AF4709561957F4F0895F6F79095819597
:100DC0009F4F0895A1E21A2EAA1BBB1BFD010DC067
:100DD000AA1FBB1FEE1FFF1FA217B307E407F507EB
:100DE00020F0A21BB30BE40BF50B661F771F881FC7
:100DF000991F1A9469F760957095809590959B015D
:100E0000AC01BD01CF010895EE0FFF1F0590F491D5
:080E1000E02D0994F894FFCFD6
:100E180073746570733A00000000003A03C303CE90
:080E280002FF02DF02280300B3
:00000001FF
