:100000000C9463000C948B000C948B000C948B006C
:100010000C948B000C948B000C948B000C948B0034
:100020000C948B000C948B000C948B000C948B0024
:100030000C948B000C948B000C948B000C948B0014
:100040000C94E8000C948B000C94D3010C941A02CD
:100050000C948B000C948B000C948B000C948B00F4
:100060000C948B000C948B000000000024002700EF
:100070002A0000000000250028002B0000000000DE
:1000800023002600290004040404040404040202DA
:100090000202020203030303030301020408102007
:1000A0004080010204081020010204081020000012
:1000B0000007000201000003040600000000000029
:1000C00000009000800311241FBECFEFD4E0DEBFFC
:1000D000CDBF11E0A0E0B1E0E4E1FDE002C0059099
:1000E0000D92AC32B107D9F711E0ACE2B1E001C03A
:1000F0001D92A63FB107E1F710E0C6ECD0E004C0C6
:100100002297FE010E948406C23CD107C9F70E94D3
:1001100041040C948D000C940000F8940C94880613
:10012000EF92FF920F931F938CE291E068EC70E0E6
:1001300048E050E029E030E00AE010E0EBE0EE2E8D
:10014000F12C0E9450051F910F91FF90EF900895A0
:10015000EF92FF920F931F93F7EDEF2EF1E0FF2E3A
:10016000C70160E071E00E942E040CE211E0C801BA
:1001700068EC70E00E94EE0464EF71E080E090E0D3
:100180000E943E01C7016AE071E00E942E04C8018E
:1001900068E37FEF0E94EE0464EF71E080E090E09E
:1001A0000E943E011F910F91FF90EF9008958CE205
:1001B00091E04CE350E060E070E00E94500487ED75
:1001C00091E040E855E260E070E00E945502089539
:1001D0001F920F920FB60F9211242F933F938F937C
:1001E0009F93AF93BF9380914A0190914B01A0914F
:1001F0004C01B0914D0130914E010196A11DB11DF0
:10020000232F2D5F2D3720F02D570196A11DB11DF5
:1002100020934E0180934A0190934B01A0934C018F
:10022000B0934D018091460190914701A091480102
:10023000B09149010196A11DB11D80934601909393
:100240004701A0934801B0934901BF91AF919F919D
:100250008F913F912F910F900FBE0F901F90189587
:100260008FB7F89420914A0130914B0140914C0195
:1002700050914D018FBFB901CA0108959B01AC0196
:100280007FB7F8948091460190914701A091480171
:10029000B091490166B5A89B05C06F3F19F0019662
:1002A000A11DB11D7FBFBA2FA92F982F8827860FB8
:1002B000911DA11DB11D62E0880F991FAA1FBB1FD0
:1002C0006A95D1F7BC012DC0FFB7F8948091460123
:1002D00090914701A0914801B0914901E6B5A89BD2
:1002E00005C0EF3F19F00196A11DB11DFFBFBA2F48
:1002F000A92F982F88278E0F911DA11DB11DE2E017
:10030000880F991FAA1FBB1FEA95D1F7861B970B71
:10031000885E9340C8F221503040404050406851C0
:100320007C4F211531054105510571F608957894EA
:1003300084B5826084BD84B5816084BD85B58260EA
:1003400085BD85B5816085BDEEE6F0E08081816088
:100350008083E1E8F0E01082808182608083808188
:1003600081608083E0E8F0E0808181608083E1EB60
:10037000F0E0808184608083E0EBF0E08081816048
:100380008083EAE7F0E080818460808380818260FE
:1003900080838081816080838081806880831092E7
:1003A000C100089508951F920F920FB60F92112465
:1003B0002F933F934F938F939F93EF93FF9340918E
:1003C000C60020918F01309190012F5F3F4F2F7316
:1003D000307080919101909192012817390759F05E
:1003E000E0918F01F0919001E15BFE4F40833093EB
:1003F000900120938F01FF91EF919F918F914F91E9
:100400003F912F910F900FBE0F901F901895E09184
:10041000E301F091E401E05CFF4F81919191208133
:100420003181821B930B8F739070892B11F00E9486
:10043000D20108951F920F920FB60F9211242F939D
:100440003F938F939F93EF93FF932091D30130912C
:10045000D4018091D5019091D6012817390731F444
:100460008091C1008F7D8093C10014C0E091D501BF
:10047000F091D601ED56FE4F20818091D5019091EB
:10048000D60101968F7390709093D6018093D50119
:100490002093C600FF91EF919F918F913F912F91F3
:1004A0000F900FBE0F901F901895AF92BF92DF92E2
:1004B000EF92FF920F931F93CF93DF93EC017A019A
:1004C0008B01DD24403081EE580780E0680780E032
:1004D000780711F0DD24D39491E0A92EB12CEC899A
:1004E000FD89DD2069F0C5010E8C02C0880F991FBF
:1004F0000A94E2F7808360E079E08DE390E005C044
:10050000108260E874E88EE190E0A80197010E94F3
:10051000450621503040404050405695479537950C
:10052000279580E12030380720F0DD2011F0DD2410
:10053000D6CFE889F9893083EA89FB892083EE895F
:10054000FF89408121E030E0C9010A8C02C0880F98
:10055000991F0A94E2F7482B4083EE89FF89408176
:10056000C9010B8C02C0880F991F0A94E2F7482B2F
:100570004083EE89FF894081C9010C8C02C0880F3D
:10058000991F0A94E2F7482B4083EE89FF89808106
:100590000D8C02C0220F331F0A94E2F72095282306
:1005A0002083DF91CF911F910F91FF90EF90DF900B
:1005B000BF90AF900895DC011C96ED91FC911D97C2
:1005C000E05CFF4F2191319180819181281B390B93
:1005D0002F733070C9010895DC011C96ED91FC91D8
:1005E0001D97E05CFF4F20813181E054F040DF0136
:1005F000AE5BBF4F8D919C9111972817390719F465
:100600002FEF3FEF07C08D919C91E80FF91F80817C
:10061000282F30E0C9010895DC011C96ED91FC9172
:100620001D97E05CFF4F20813181E054F040DF01F5
:10063000AE5BBF4F8D919C9111972817390719F424
:100640002FEF3FEF10C08D919C911197E80FF91F8C
:1006500020818D919C91119701968F7390701196C6
:100660009C938E9330E0C9010895FC01868597859F
:10067000DC01A05CBF4FFC01EE5BFF4F2D913C9174
:1006800011978081918128173907C1F70895CF9379
:10069000DF93EC01EE85FF85E05CFF4F2081318127
:1006A000E054F0402F5F3F4F2F733070DF01AE5B9F
:1006B000BF4F8D919C91119728173907D1F3E05CBA
:1006C000FF4F80819181E054F040E80FF91F608373
:1006D000EE85FF85E05CFF4F31832083EE89FF8943
:1006E000208181E090E00D8C02C0880F991F0A9450
:1006F000E2F7282B208381E090E0DF91CF910895ED
:100700001092DA011092D90188EE93E0A0E0B0E0F7
:100710008093DB019093DC01A093DD01B093DE01B7
:100720008FE191E09093D8018093D7018FE491E01D
:100730009093E4018093E30183E991E09093E601D3
:100740008093E50185EC90E09093E8018093E701C8
:1007500084EC90E09093EA018093E90180EC90E0D2
:100760009093EC018093EB0181EC90E09093EE018B
:100770008093ED0186EC90E09093F0018093EF017F
:1007800084E08093F10183E08093F20187E080931D
:10079000F30185E08093F40181E08093F5010895F1
:1007A000CF92DF92EF92FF920F931F93CF93DF933D
:1007B0007C016B018A01C0E0D0E00FC0D6016D91D1
:1007C0006D01D701ED91FC910190F081E02DC70101
:1007D0000995C80FD91F015010400115110571F777
:1007E000CE01DF91CF911F910F91FF90EF90DF909D
:1007F000CF900895EF92FF920F931F938C01DC012D
:10080000ED91FC910190F081E02D6DE009957C0166
:10081000D801ED91FC910190F081E02DC8016AE0D2
:1008200009959C012E0D3F1DC9011F910F91FF904D
:10083000EF900895CF93DF93DB010D900020E9F74F
:100840001197A61BB70BEC01E881F9810280F381B7
:10085000E02DAD010995DF91CF910895EF92FF92C0
:100860000F931F937C010E941A048C01C7010E9400
:10087000FA03080F191FC8011F910F91FF90EF9005
:100880000895CF93DF930E9497010E94D700C7E09D
:10089000D2E00E94A8002097E1F30E940702F9CF5E
:1008A000CF92DF92EF92FF920F931F936C017A0128
:1008B0008B01FC0120853185442737FD4095542F5D
:1008C00060E67AEE80E090E00E946706CA01B90116
:1008D000A80197010E946706F601248335834683A9
:1008E00057831F910F91FF90EF90DF90CF90089565
:1008F0000F931F93CF93DF93EC018B018A859B8528
:10090000029731F56130710589F06230710524F488
:100910006115710541F01CC06230710571F06330E2
:100920007105B1F40DC08E8560E002C08E8561E076
:100930000E94CA05888961E009C08E8561E002C015
:100940008E8560E00E94CA05888960E00E94CA0521
:100950008A859B850497E9F501301105A1F00230E5
:1009600011051CF4012B41F034C002301105D1F007
:100970000330110571F51DC08E8561E00E94CA0526
:10098000888960E006C08E8560E00E94CA0588897B
:1009900061E00E94CA058A8961E00E94CA058C89CB
:1009A00060E015C08E8560E00E94CA05888961E01C
:1009B00006C08E8561E00E94CA05888960E00E94B9
:1009C000CA058A8960E00E94CA058C8961E00E949C
:1009D000CA05DF91CF911F910F9108950F931F9337
:1009E000CF93DF93EC011616170624F481E090E014
:1009F0009983888377FF02C0198218828B0177FF61
:100A000046C0109501951F4F42C00E9430012E89AB
:100A10003F89488D598D621B730B840B950B2C817C
:100A20003D814E815F81621773078407950768F3E4
:100A30000E9430016E8B7F8B888F998F888199817E
:100A40002C853D85019761F42F5F3F4F3D872C87B3
:100A5000888599852817390771F41D861C860BC077
:100A6000232B21F4888599859D878C878C859D858E
:100A700001979D878C87015010408C859D8564E08F
:100A800070E00E943206BC01CE010E94780401157C
:100A9000110509F0BACFDF91CF911F910F91089501
:100AA000CF92DF92EF92FF920F931F936C01842FEE
:100AB000F601158614861382128211821082168A1C
:100AC000178A108E118E7187608746875787318B02
:100AD000208B138B028BF58AE48A61E00E948B05E0
:100AE000F601808961E00E948B05F601828961E050
:100AF0000E948B05F601848961E00E948B0584E0E9
:100B000090E0F601938782871F910F91FF90EF90FD
:100B1000DF90CF900895CF93DF93482F50E0CA0124
:100B200086569F4FFC0134914A575F4FFA018491DA
:100B3000882369F190E0880F991FFC01E859FF4F65
:100B4000A591B491FC01EE58FF4FC591D491662355
:100B500051F42FB7F8948C91932F909589238C930F
:100B6000888189230BC0623061F42FB7F8948C918F
:100B7000932F909589238C938881832B88832FBF13
:100B800006C09FB7F8948C91832B8C939FBFDF9105
:100B9000CF910895482F50E0CA0182559F4FFC0124
:100BA0002491CA0186569F4FFC0194914A575F4F8A
:100BB000FA013491332309F440C0222351F1233048
:100BC00071F0243028F42130A1F0223011F514C046
:100BD0002630B1F02730C1F02430D9F404C0809120
:100BE00080008F7703C0809180008F7D809380008C
:100BF00010C084B58F7702C084B58F7D84BD09C0D5
:100C00008091B0008F7703C08091B0008F7D80937A
:100C1000B000E32FF0E0EE0FFF1FEE58FF4FA5915D
:100C2000B4912FB7F894662321F48C919095892381
:100C300002C08C91892B8C932FBF0895AA1BBB1BDC
:100C400051E107C0AA1FBB1FA617B70710F0A61BCC
:100C5000B70B881F991F5A95A9F780959095BC01ED
:100C6000CD01089597FB092E07260AD077FD04D001
:100C7000E5DF06D000201AF4709561957F4F089546
:100C8000F6F7909581959F4F0895A1E21A2EAA1B21
:100C9000BB1BFD010DC0AA1FBB1FEE1FFF1FA2172C
:100CA000B307E407F50720F0A21BB30BE40BF50B29
:100CB000661F771F881F991F1A9469F760957095B2
:100CC000809590959B01AC01BD01CF01089597FBE4
:100CD000092E05260ED057FD04D0D7DF0AD0001C00
:100CE00038F450954095309521953F4F4F4F5F4FC9
:100CF0000895F6F790958095709561957F4F8F4F89
:100D00009F4F0895EE0FFF1F0590F491E02D099479
:040D1000F894FFCF85
:100D1400636C6F636B7769736500636F756E74657D
:100D240072636C6F636B7769736500000000004742
:0C0D340003D003DB020C03EC02350300CB
:00000001FF
