:100000000C9462000C948A000C948A000C948A0070
:100010000C948A000C948A000C948A000C948A0038
:100020000C948A000C948A000C948A000C948A0028
:100030000C948A000C948A000C948A000C948A0018
:100040000C943C030C948A000C948A000C948A0053
:100050000C948A000C948A000C948A000C948A00F8
:100060000C948A000C948A000000000024002700F1
:100070002A0000000000250028002B0000000000DE
:1000800023002600290004040404040404040202DA
:100090000202020203030303030301020408102007
:1000A0004080010204081020010204081020000012
:1000B0000007000201000003040600000000000029
:1000C0000000900011241FBECFEFD4E0DEBFCDBFF3
:1000D00011E0A0E0B1E0E0EBF8E002C005900D9285
:1000E000A230B107D9F711E0A2E0B1E001C01D9242
:1000F000A532B107E1F710E0C4ECD0E004C02297CC
:10010000FE010E945204C23CD107C9F70E94F201CD
:100110000C948C000C940000F8940C9456040895F0
:10012000EF92FF920F931F9382E091E068EC70E0F2
:1001300048E050E029E030E00AE010E0EBE0EE2E8D
:10014000F12C0E9401031F910F91FF90EF900895F1
:10015000AF92BF92CF92DF92EF92FF920F931F93D5
:100160008EE00E94F40000D000D0AA2797FDA09551
:10017000BA2F24E630E040E050E0EDB7FEB721832F
:10018000328343835483BC01CD0120E030E040E062
:1001900050E0FFEFEF2EF3E0FF2E012D112DAA24EA
:1001A000BB2465010E94A901CB010F900F900F9015
:1001B0000F90161617067CF4AC01662757FD609564
:1001C000762F82E091E00E94010282E091E062E0FD
:1001D00070E00E949F021F910F91FF90EF90DF90BF
:1001E000CF90BF90AF900895982F8E3008F09E501A
:1001F0009770809100018295880F880F807C892BF1
:1002000080937C0080917A00806480937A00809152
:100210007A0086FDFCCF2091780040917900942FE0
:1002200080E030E0282B392BC9010895CF93DF936C
:10023000482F50E0CA0186569F4FFC0134914A571F
:100240005F4FFA018491882369F190E0880F991F2C
:10025000FC01E859FF4FA591B491FC01EE58FF4F06
:10026000C591D491662351F42FB7F8948C91932FB4
:10027000909589238C93888189230BC0623061F427
:100280002FB7F8948C91932F909589238C93888124
:10029000832B88832FBF06C09FB7F8948C91832B44
:1002A0008C939FBFDF91CF910895482F50E0CA01F2
:1002B00082559F4FFC012491CA0186569F4FFC0135
:1002C00094914A575F4FFA013491332309F440C0A7
:1002D000222351F1233071F0243028F42130A1F091
:1002E000223011F514C02630B1F02730C1F024308F
:1002F000D9F404C0809180008F7703C08091800082
:100300008F7D8093800010C084B58F7702C084B544
:100310008F7D84BD09C08091B0008F7703C080912C
:10032000B0008F7D8093B000E32FF0E0EE0FFF1F51
:10033000EE58FF4FA591B4912FB7F894662321F49E
:100340008C919095892302C08C91892B8C932FBF1F
:1003500008952F923F924F925F926F927F928F9269
:100360009F92AF92BF92CF92DF92EF92FF920F9344
:100370001F93DF93CF93CDB7DEB73B014C0119013B
:100380002A016D897E898F89988D6A197B098C096C
:100390009D09621A730A840A950AA40193010E94B6
:1003A000CD03E218F30804091509A80197010E947A
:1003B000FF032A0D3B1D4C1D5D1DB901CA01CF91E4
:1003C000DF911F910F91FF90EF90DF90CF90BF9042
:1003D000AF909F908F907F906F905F904F903F90E5
:1003E0002F900895CF93DF930E9492030E948F0075
:1003F000C0E0D0E00E94A8002097E1F30E94000036
:10040000F9CFCF92DF92EF92FF920F931F936C017F
:100410007A018B01FC0120853185442737FD409509
:10042000542F60E67AEE80E090E00E94FF03CA015C
:10043000B901A80197010E94FF03F60124833583C7
:10044000468357831F910F91FF90EF90DF90CF90DD
:1004500008950F931F93CF93DF93EC018B018A854F
:100460009B85029731F56130710589F06230710525
:1004700024F46115710541F01CC06230710571F002
:1004800063307105B1F40DC08E8560E002C08E85C9
:1004900061E00E945501888961E009C08E8561E0B4
:1004A00002C08E8560E00E945501888960E00E944C
:1004B00055018A859B850497E9F501301105A1F066
:1004C000023011051CF4012B41F034C0023011053B
:1004D000D1F00330110571F51DC08E8561E00E94D9
:1004E0005501888960E006C08E8560E00E94550154
:1004F000888961E00E9455018A8961E00E94550166
:100500008C8960E015C08E8560E00E945501888965
:1005100061E006C08E8561E00E945501888960E037
:100520000E9455018A8960E00E9455018C8961E032
:100530000E945501DF91CF911F910F9108950F9364
:100540001F93CF93DF93EC011616170624F481E076
:1005500090E09983888377FF02C0198218828B010B
:1005600077FF46C0109501951F4F42C00E9484033B
:100570002E893F89488D598D621B730B840B950B17
:100580002C813D814E815F81621773078407950737
:1005900068F30E9484036E8B7F8B888F998F88818C
:1005A00099812C853D85019761F42F5F3F4F3D87F1
:1005B0002C87888599852817390771F41D861C8634
:1005C0000BC0232B21F4888599859D878C878C858A
:1005D0009D8501979D878C87015010408C859D8556
:1005E00064E070E00E94EC03BC01CE010E9429028D
:1005F0000115110509F0BACFDF91CF911F910F912D
:100600000895CF92DF92EF92FF920F931F936C01A8
:10061000842FF601158614861382128211821082AD
:10062000168A178A108E118E7187608746875787C2
:10063000318B208B138B028BF58AE48A61E00E9458
:100640001601F601808961E00E941601F601828997
:1006500061E00E941601F601848961E00E941601A2
:1006600084E090E0F601938782871F910F91FF90BD
:10067000EF90DF90CF9008951F920F920FB60F92D8
:1006800011242F933F938F939F93AF93BF938091A8
:10069000200190912101A0912201B091230130917C
:1006A00024010196A11DB11D232F2D5F2D3720F0B0
:1006B0002D570196A11DB11D209324018093200187
:1006C00090932101A0932201B093230180911C01FA
:1006D00090911D01A0911E01B0911F010196A11DD5
:1006E000B11D80931C0190931D01A0931E01B09336
:1006F0001F01BF91AF919F918F913F912F910F90CB
:100700000FBE0F901F9018958FB7F894209120017D
:100710003091210140912201509123018FBFB901F5
:10072000CA010895789484B5826084BD84B58160DF
:1007300084BD85B5826085BD85B5816085BDEEE6E9
:10074000F0E0808181608083E1E8F0E010828081C8
:1007500082608083808181608083E0E8F0E0808136
:1007600081608083E1EBF0E0808184608083E0EB56
:10077000F0E0808181608083EAE7F0E0808184603E
:10078000808380818260808380818160808380819A
:10079000806880831092C1000895629FD001739F8A
:1007A000F001829FE00DF11D649FE00DF11D929F0D
:1007B000F00D839FF00D749FF00D659FF00D99274C
:1007C000729FB00DE11DF91F639FB00DE11DF91F70
:1007D000BD01CF011124089597FB092E07260AD0E9
:1007E00077FD04D027D006D000201AF470956195CB
:1007F0007F4F0895F6F7909581959F4F089597FB49
:10080000092E05260ED057FD04D028D00AD0001C92
:1008100038F450954095309521953F4F4F4F5F4F9D
:100820000895F6F790958095709561957F4F8F4F5D
:100830009F4F0895AA1BBB1B51E107C0AA1FBB1FF6
:10084000A617B70710F0A61BB70B881F991F5A955C
:10085000A9F780959095BC01CD010895A1E21A2ECB
:10086000AA1BBB1BFD010DC0AA1FBB1FEE1FFF1F54
:10087000A217B307E407F50720F0A21BB30BE40BA4
:10088000F50B661F771F881F991F1A9469F76095EB
:100890007095809590959B01AC01BD01CF010895A5
:1008A000EE0FFF1F0590F491E02D0994F894FFCF0F
:0208B000010045
:00000001FF
