:100000000C9462000C948A000C948A000C948A0070
:100010000C948A000C948A000C948A000C948A0038
:100020000C948A000C948A000C948A000C948A0028
:100030000C948A000C948A000C948A000C948A0018
:100040000C94C7020C948A000C948A000C948A00C9
:100050000C948A000C948A000C948A000C948A00F8
:100060000C948A000C948A000000000024002700F1
:100070002A0000000000250028002B0000000000DE
:1000800023002600290004040404040404040202DA
:100090000202020203030303030301020408102007
:1000A0004080010204081020010204081020000012
:1000B0000007000201000003040600000000000029
:1000C00000008F0011241FBECFEFD4E0DEBFCDBFF4
:1000D00011E0A0E0B1E0E8E8F7E002C005900D9281
:1000E000A230B107D9F711E0A2E0B1E001C01D9242
:1000F000A732B107E1F710E0C4ECD0E004C02297CA
:10010000FE010E94BE03C23CD107C9F70E947D01D7
:100110000C948C000C940000F8940C94C203EF92A1
:10012000FF920F931F9382E091E064E670E048E055
:1001300050E029E030E00AE010E0EBE0EE2EF12C98
:100140000E948C021F910F91FF90EF9008950F93E2
:100150001F9380E00E94C8008C0180911C01909147
:100160001D01B801681B790B82E091E00E942A0210
:1001700010931D0100931C011F910F91089582E0BF
:1001800091E04EE150E060E070E00E948C01089543
:10019000982F8E3008F09E509770809100018295C4
:1001A000880F880F807C892B80937C0080917A0057
:1001B000806480937A0080917A0086FDFCCF209144
:1001C000780040917900942F80E030E0282B392B83
:1001D000C9010895CF93DF93482F50E0CA01865696
:1001E0009F4FFC0134914A575F4FFA018491882355
:1001F00069F190E0880F991FFC01E859FF4FA59124
:10020000B491FC01EE58FF4FC591D491662351F48F
:100210002FB7F8948C91932F909589238C93888194
:1002200089230BC0623061F42FB7F8948C91932F1F
:10023000909589238C938881832B88832FBF06C058
:100240009FB7F8948C91832B8C939FBFDF91CF91B4
:100250000895482F50E0CA0182559F4FFC01249118
:10026000CA0186569F4FFC0194914A575F4FFA018D
:100270003491332309F440C0222351F1233071F02B
:10028000243028F42130A1F0223011F514C026309A
:10029000B1F02730C1F02430D9F404C0809180003F
:1002A0008F7703C0809180008F7D8093800010C085
:1002B00084B58F7702C084B58F7D84BD09C08091DD
:1002C000B0008F7703C08091B0008F7D8093B00025
:1002D000E32FF0E0EE0FFF1FEE58FF4FA591B49112
:1002E0002FB7F894662321F48C919095892302C04E
:1002F0008C91892B8C932FBF0895CF93DF930E940D
:100300001D030E94BF00C0E0D0E00E94A70020971C
:10031000E1F30E940000F9CFCF92DF92EF92FF92BB
:100320000F931F936C017A018B01FC0120853185AD
:10033000442737FD4095542F60E67AEE80E090E048
:100340000E946B03CA01B901A80197010E946B03C7
:10035000F60124833583468357831F910F91FF90C5
:10036000EF90DF90CF9008950F931F93CF93DF937B
:10037000EC018B018A859B85029731F5613071050F
:1003800089F06230710524F46115710541F01CC0DB
:100390006230710571F063307105B1F40DC08E8566
:1003A00060E002C08E8561E00E942901888961E0D9
:1003B00009C08E8561E002C08E8560E00E9429013F
:1003C000888960E00E9429018A859B850497E9F568
:1003D00001301105A1F0023011051CF4012B41F090
:1003E00034C002301105D1F00330110571F51DC084
:1003F0008E8561E00E942901888960E006C08E85B3
:1004000060E00E942901888961E00E9429018A89AF
:1004100061E00E9429018C8960E015C08E8560E052
:100420000E942901888961E006C08E8561E00E94F2
:100430002901888960E00E9429018A8960E00E9480
:1004400029018C8961E00E942901DF91CF911F91E0
:100450000F9108950F931F93CF93DF93EC0116161E
:10046000170624F481E090E09983888377FF02C027
:10047000198218828B0177FF46C0109501951F4F96
:1004800042C00E940F032E893F89488D598D621BFF
:10049000730B840B950B2C813D814E815F8162171C
:1004A00073078407950768F30E940F036E8B7F8B99
:1004B000888F998F888199812C853D85019761F47A
:1004C0002F5F3F4F3D872C878885998528173907EF
:1004D00071F41D861C860BC0232B21F48885998519
:1004E0009D878C878C859D8501979D878C87015082
:1004F00010408C859D8564E070E00E945803BC012B
:10050000CE010E94B4010115110509F0BACFDF91A7
:10051000CF911F910F910895CF92DF92EF92FF92AA
:100520000F931F936C01842FF60115861486138296
:10053000128211821082168A178A108E118E71878C
:10054000608746875787318B208B138B028BF58A08
:10055000E48A61E00E94EA00F601808961E00E947D
:10056000EA00F601828961E00E94EA00F6018489CE
:1005700061E00E94EA0084E090E0F60193878287C0
:100580001F910F91FF90EF90DF90CF9008951F92F1
:100590000F920FB60F9211242F933F938F939F9337
:1005A000AF93BF938091220190912301A0912401E8
:1005B000B0912501309126010196A11DB11D232F77
:1005C0002D5F2D3720F02D570196A11DB11D2093D1
:1005D00026018093220190932301A0932401B093DC
:1005E000250180911E0190911F01A0912001B091E1
:1005F00021010196A11DB11D80931E0190931F0141
:10060000A0932001B0932101BF91AF919F918F9151
:100610003F912F910F900FBE0F901F9018958FB79D
:10062000F8942091220130912301409124015091AE
:1006300025018FBFB901CA010895789484B58260FD
:1006400084BD84B5816084BD85B5826085BD85B576
:10065000816085BDEEE6F0E0808181608083E1E825
:10066000F0E010828081826080838081816080835D
:10067000E0E8F0E0808181608083E1EBF0E0808160
:1006800084608083E0EBF0E0808181608083EAE732
:10069000F0E08081846080838081826080838081BB
:1006A000816080838081806880831092C10008957A
:1006B00097FB092E07260AD077FD04D027D006D055
:1006C00000201AF4709561957F4F0895F6F7909584
:1006D00081959F4F089597FB092E05260ED057FD53
:1006E00004D028D00AD0001C38F45095409530959D
:1006F00021953F4F4F4F5F4F0895F6F790958095A6
:10070000709561957F4F8F4F9F4F0895AA1BBB1B1C
:1007100051E107C0AA1FBB1FA617B70710F0A61B01
:10072000B70B881F991F5A95A9F780959095BC0122
:10073000CD010895A1E21A2EAA1BBB1BFD010DC01D
:10074000AA1FBB1FEE1FFF1FA217B307E407F50781
:1007500020F0A21BB30BE40BF50B661F771F881F5D
:10076000991F1A9469F760957095809590959B01F3
:10077000AC01BD01CF010895EE0FFF1F0590F4916C
:08078000E02D0994F894FFCF6D
:0207880001006E
:00000001FF
